{
  "address": "0x725d9b8265CF7Cb77478C83fCC82020f789a389f",
  "abi": [
    {
      "inputs": [
        {
          "internalType": "address[]",
          "name": "_initialOwners",
          "type": "address[]"
        }
      ],
      "stateMutability": "nonpayable",
      "type": "constructor"
    },
    {
      "inputs": [],
      "name": "FailedToSendEther",
      "type": "error"
    },
    {
      "inputs": [],
      "name": "InsufficientContractFunds",
      "type": "error"
    },
    {
      "inputs": [],
      "name": "InsufficientStreamFunds",
      "type": "error"
    },
    {
      "inputs": [],
      "name": "NoActiveStream",
      "type": "error"
    },
    {
      "inputs": [],
      "name": "PreviousAmountNotFullyWithdrawn",
      "type": "error"
    },
    {
      "inputs": [],
      "name": "UnauthorizedWithdrawal",
      "type": "error"
    },
    {
      "anonymous": false,
      "inputs": [
        {
          "indexed": true,
          "internalType": "uint256",
          "name": "grantId",
          "type": "uint256"
        },
        {
          "indexed": true,
          "internalType": "address",
          "name": "to",
          "type": "address"
        },
        {
          "indexed": false,
          "internalType": "uint256",
          "name": "amount",
          "type": "uint256"
        }
      ],
      "name": "AddGrant",
      "type": "event"
    },
    {
      "anonymous": false,
      "inputs": [
        {
          "indexed": true,
          "internalType": "address",
          "name": "newOwner",
          "type": "address"
        },
        {
          "indexed": true,
          "internalType": "address",
          "name": "addedBy",
          "type": "address"
        }
      ],
      "name": "AddOwner",
      "type": "event"
    },
    {
      "anonymous": false,
      "inputs": [
        {
          "indexed": true,
          "internalType": "uint256",
          "name": "grantId",
          "type": "uint256"
        },
        {
          "indexed": true,
          "internalType": "address",
          "name": "to",
          "type": "address"
        },
        {
          "indexed": false,
          "internalType": "uint256",
          "name": "amount",
          "type": "uint256"
        },
        {
          "indexed": false,
          "internalType": "uint8",
          "name": "grantNumber",
          "type": "uint8"
        },
        {
          "indexed": false,
          "internalType": "uint8",
          "name": "stageNumber",
          "type": "uint8"
        }
      ],
      "name": "MoveGrantToNextStage",
      "type": "event"
    },
    {
      "anonymous": false,
      "inputs": [
        {
          "indexed": true,
          "internalType": "address",
          "name": "removedOwner",
          "type": "address"
        },
        {
          "indexed": true,
          "internalType": "address",
          "name": "removedBy",
          "type": "address"
        }
      ],
      "name": "RemoveOwner",
      "type": "event"
    },
    {
      "anonymous": false,
      "inputs": [
        {
          "indexed": true,
          "internalType": "bytes32",
          "name": "role",
          "type": "bytes32"
        },
        {
          "indexed": true,
          "internalType": "bytes32",
          "name": "previousAdminRole",
          "type": "bytes32"
        },
        {
          "indexed": true,
          "internalType": "bytes32",
          "name": "newAdminRole",
          "type": "bytes32"
        }
      ],
      "name": "RoleAdminChanged",
      "type": "event"
    },
    {
      "anonymous": false,
      "inputs": [
        {
          "indexed": true,
          "internalType": "bytes32",
          "name": "role",
          "type": "bytes32"
        },
        {
          "indexed": true,
          "internalType": "address",
          "name": "account",
          "type": "address"
        },
        {
          "indexed": true,
          "internalType": "address",
          "name": "sender",
          "type": "address"
        }
      ],
      "name": "RoleGranted",
      "type": "event"
    },
    {
      "anonymous": false,
      "inputs": [
        {
          "indexed": true,
          "internalType": "bytes32",
          "name": "role",
          "type": "bytes32"
        },
        {
          "indexed": true,
          "internalType": "address",
          "name": "account",
          "type": "address"
        },
        {
          "indexed": true,
          "internalType": "address",
          "name": "sender",
          "type": "address"
        }
      ],
      "name": "RoleRevoked",
      "type": "event"
    },
    {
      "anonymous": false,
      "inputs": [
        {
          "indexed": true,
          "internalType": "uint256",
          "name": "grantId",
          "type": "uint256"
        },
        {
          "indexed": true,
          "internalType": "address",
          "name": "to",
          "type": "address"
        },
        {
          "indexed": false,
          "internalType": "uint256",
          "name": "cap",
          "type": "uint256"
        },
        {
          "indexed": false,
          "internalType": "uint256",
          "name": "last",
          "type": "uint256"
        },
        {
          "indexed": false,
          "internalType": "uint256",
          "name": "amountLeft",
          "type": "uint256"
        },
        {
          "indexed": false,
          "internalType": "uint8",
          "name": "grantNumber",
          "type": "uint8"
        },
        {
          "indexed": false,
          "internalType": "uint8",
          "name": "stageNumber",
          "type": "uint8"
        }
      ],
      "name": "UpdateGrant",
      "type": "event"
    },
    {
      "anonymous": false,
      "inputs": [
        {
          "indexed": true,
          "internalType": "address",
          "name": "to",
          "type": "address"
        },
        {
          "indexed": false,
          "internalType": "uint256",
          "name": "amount",
          "type": "uint256"
        },
        {
          "indexed": false,
          "internalType": "string",
          "name": "reason",
          "type": "string"
        },
        {
          "indexed": false,
          "internalType": "uint256",
          "name": "grantId",
          "type": "uint256"
        },
        {
          "indexed": false,
          "internalType": "uint8",
          "name": "grantNumber",
          "type": "uint8"
        },
        {
          "indexed": false,
          "internalType": "uint8",
          "name": "stageNumber",
          "type": "uint8"
        }
      ],
      "name": "Withdraw",
      "type": "event"
    },
    {
      "stateMutability": "payable",
      "type": "fallback"
    },
    {
      "inputs": [],
      "name": "DEFAULT_ADMIN_ROLE",
      "outputs": [
        {
          "internalType": "bytes32",
          "name": "",
          "type": "bytes32"
        }
      ],
      "stateMutability": "view",
      "type": "function"
    },
    {
      "inputs": [],
      "name": "DUST_THRESHOLD",
      "outputs": [
        {
          "internalType": "uint256",
          "name": "",
          "type": "uint256"
        }
      ],
      "stateMutability": "view",
      "type": "function"
    },
    {
      "inputs": [],
      "name": "FULL_STREAM_UNLOCK_PERIOD",
      "outputs": [
        {
          "internalType": "uint256",
          "name": "",
          "type": "uint256"
        }
      ],
      "stateMutability": "view",
      "type": "function"
    },
    {
      "inputs": [],
      "name": "OWNER_ROLE",
      "outputs": [
        {
          "internalType": "bytes32",
          "name": "",
          "type": "bytes32"
        }
      ],
      "stateMutability": "view",
      "type": "function"
    },
    {
      "inputs": [
        {
          "internalType": "address",
          "name": "_builder",
          "type": "address"
        },
        {
          "internalType": "uint256",
          "name": "_cap",
          "type": "uint256"
        },
        {
          "internalType": "uint8",
          "name": "_grantNumber",
          "type": "uint8"
        }
      ],
      "name": "addGrantStream",
      "outputs": [
        {
          "internalType": "uint256",
          "name": "",
          "type": "uint256"
        }
      ],
      "stateMutability": "nonpayable",
      "type": "function"
    },
    {
      "inputs": [
        {
          "internalType": "address",
          "name": "newOwner",
          "type": "address"
        }
      ],
      "name": "addOwner",
      "outputs": [],
      "stateMutability": "nonpayable",
      "type": "function"
    },
    {
      "inputs": [
        {
          "internalType": "address",
          "name": "",
          "type": "address"
        },
        {
          "internalType": "uint256",
          "name": "",
          "type": "uint256"
        }
      ],
      "name": "builderGrants",
      "outputs": [
        {
          "internalType": "uint256",
          "name": "",
          "type": "uint256"
        }
      ],
      "stateMutability": "view",
      "type": "function"
    },
    {
      "inputs": [
        {
          "internalType": "address",
          "name": "_builder",
          "type": "address"
        }
      ],
      "name": "getBuilderGrantCount",
      "outputs": [
        {
          "internalType": "uint256",
          "name": "",
          "type": "uint256"
        }
      ],
      "stateMutability": "view",
      "type": "function"
    },
    {
      "inputs": [
        {
          "internalType": "bytes32",
          "name": "role",
          "type": "bytes32"
        }
      ],
      "name": "getRoleAdmin",
      "outputs": [
        {
          "internalType": "bytes32",
          "name": "",
          "type": "bytes32"
        }
      ],
      "stateMutability": "view",
      "type": "function"
    },
    {
      "inputs": [
        {
          "internalType": "bytes32",
          "name": "role",
          "type": "bytes32"
        },
        {
          "internalType": "address",
          "name": "account",
          "type": "address"
        }
      ],
      "name": "grantRole",
      "outputs": [],
      "stateMutability": "nonpayable",
      "type": "function"
    },
    {
      "inputs": [
        {
          "internalType": "uint256",
          "name": "",
          "type": "uint256"
        }
      ],
      "name": "grantStreams",
      "outputs": [
        {
          "internalType": "uint256",
          "name": "cap",
          "type": "uint256"
        },
        {
          "internalType": "uint256",
          "name": "last",
          "type": "uint256"
        },
        {
          "internalType": "uint256",
          "name": "amountLeft",
          "type": "uint256"
        },
        {
          "internalType": "uint8",
          "name": "grantNumber",
          "type": "uint8"
        },
        {
          "internalType": "uint8",
          "name": "stageNumber",
          "type": "uint8"
        },
        {
          "internalType": "address",
          "name": "builder",
          "type": "address"
        }
      ],
      "stateMutability": "view",
      "type": "function"
    },
    {
      "inputs": [
        {
          "internalType": "bytes32",
          "name": "role",
          "type": "bytes32"
        },
        {
          "internalType": "address",
          "name": "account",
          "type": "address"
        }
      ],
      "name": "hasRole",
      "outputs": [
        {
          "internalType": "bool",
          "name": "",
          "type": "bool"
        }
      ],
      "stateMutability": "view",
      "type": "function"
    },
    {
      "inputs": [
        {
          "internalType": "uint256",
          "name": "_grantId",
          "type": "uint256"
        },
        {
          "internalType": "uint256",
          "name": "_cap",
          "type": "uint256"
        }
      ],
      "name": "moveGrantToNextStage",
      "outputs": [],
      "stateMutability": "nonpayable",
      "type": "function"
    },
    {
      "inputs": [],
      "name": "nextGrantId",
      "outputs": [
        {
          "internalType": "uint256",
          "name": "",
          "type": "uint256"
        }
      ],
      "stateMutability": "view",
      "type": "function"
    },
    {
      "inputs": [
        {
          "internalType": "address",
          "name": "owner",
          "type": "address"
        }
      ],
      "name": "removeOwner",
      "outputs": [],
      "stateMutability": "nonpayable",
      "type": "function"
    },
    {
      "inputs": [
        {
          "internalType": "bytes32",
          "name": "role",
          "type": "bytes32"
        },
        {
          "internalType": "address",
          "name": "account",
          "type": "address"
        }
      ],
      "name": "renounceRole",
      "outputs": [],
      "stateMutability": "nonpayable",
      "type": "function"
    },
    {
      "inputs": [
        {
          "internalType": "bytes32",
          "name": "role",
          "type": "bytes32"
        },
        {
          "internalType": "address",
          "name": "account",
          "type": "address"
        }
      ],
      "name": "revokeRole",
      "outputs": [],
      "stateMutability": "nonpayable",
      "type": "function"
    },
    {
      "inputs": [
        {
          "internalType": "uint256",
          "name": "_grantId",
          "type": "uint256"
        },
        {
          "internalType": "uint256",
          "name": "_amount",
          "type": "uint256"
        },
        {
          "internalType": "string",
          "name": "_reason",
          "type": "string"
        }
      ],
      "name": "streamWithdraw",
      "outputs": [],
      "stateMutability": "nonpayable",
      "type": "function"
    },
    {
      "inputs": [
        {
          "internalType": "bytes4",
          "name": "interfaceId",
          "type": "bytes4"
        }
      ],
      "name": "supportsInterface",
      "outputs": [
        {
          "internalType": "bool",
          "name": "",
          "type": "bool"
        }
      ],
      "stateMutability": "view",
      "type": "function"
    },
    {
      "inputs": [
        {
          "internalType": "uint256",
          "name": "_grantId",
          "type": "uint256"
        }
      ],
      "name": "unlockedGrantAmount",
      "outputs": [
        {
          "internalType": "uint256",
          "name": "",
          "type": "uint256"
        }
      ],
      "stateMutability": "view",
      "type": "function"
    },
    {
      "inputs": [
        {
          "internalType": "uint256",
          "name": "_grantId",
          "type": "uint256"
        },
        {
          "internalType": "uint256",
          "name": "_cap",
          "type": "uint256"
        },
        {
          "internalType": "uint256",
          "name": "_last",
          "type": "uint256"
        },
        {
          "internalType": "uint256",
          "name": "_amountLeft",
          "type": "uint256"
        },
        {
          "internalType": "uint8",
          "name": "_stageNumber",
          "type": "uint8"
        }
      ],
      "name": "updateGrant",
      "outputs": [],
      "stateMutability": "nonpayable",
      "type": "function"
    },
    {
      "stateMutability": "payable",
      "type": "receive"
    }
  ],
  "transactionHash": "0xbb155808c08414941008c1c8219caf1721f9f495d62e8477ab4d769a9d339ad0",
  "args": [
    [
      "0x55b9CB0bCf56057010b9c471e7D42d60e1111EEa",
      "0x60583563D5879C2E59973E5718c7DE2147971807",
      "0xb8224dfCf3C174331a8e6a841AEEa7dF321f6D8E",
      "0xB4F53bd85c00EF22946d24Ae26BC38Ac64F5E7B1"
    ]
  ],
  "numDeployments": 1,
  "solcInputHash": "66949c7747c59450b1528b6c03e97e3b",
  "bytecode": "0x608060405260016002553480156200001657600080fd5b5060405162001863380380620018638339810160408190526200003991620001da565b620000546000805160206200184383398151915280620000bb565b60005b8151811015620000b3576200009e600080516020620018438339815191528383815181106200008a576200008a620002ac565b60200260200101516200010660201b60201c565b80620000aa81620002c2565b91505062000057565b5050620002ea565b600082815260208190526040808220600101805490849055905190918391839186917fbd79b86ffe0ab8e8776151514217cd7cacd52c909f66475c3af44e129f0b00ff9190a4505050565b6000828152602081815260408083206001600160a01b038516845290915290205460ff16620001a3576000828152602081815260408083206001600160a01b03851684529091529020805460ff19166001179055620001623390565b6001600160a01b0316816001600160a01b0316837f2f8788117e7eff1d82e926ec794901d17c78024a50270940304540a733656f0d60405160405180910390a45b5050565b634e487b7160e01b600052604160045260246000fd5b80516001600160a01b0381168114620001d557600080fd5b919050565b60006020808385031215620001ee57600080fd5b82516001600160401b03808211156200020657600080fd5b818501915085601f8301126200021b57600080fd5b815181811115620002305762000230620001a7565b8060051b604051601f19603f83011681018181108582111715620002585762000258620001a7565b6040529182528482019250838101850191888311156200027757600080fd5b938501935b82851015620002a0576200029085620001bd565b845293850193928501926200027c565b98975050505050505050565b634e487b7160e01b600052603260045260246000fd5b600060018201620002e357634e487b7160e01b600052601160045260246000fd5b5060010190565b61154980620002fa6000396000f3fe6080604052600436106101225760003560e01c80638f9eb24d116100a5578063bb8b3ea91161006c578063bb8b3ea914610328578063d547741f1461033e578063dd7dc9a91461035e578063e58378bb14610379578063ed2c9d091461039b578063f1f693d11461043857005b80638f9eb24d1461029e57806391d14854146102be578063a217fddf146102de578063ae69f6db146102f3578063b493eca11461031357005b8063378c3286116100e9578063378c3286146101fe578063543d55d51461021e5780636770c53f1461023e5780637065cb481461025e5780637370c2241461027e57005b806301ffc9a71461012b578063173825d914610160578063248a9ca3146101805780632f2ff15d146101be57806336568abe146101de57005b3661012957005b005b34801561013757600080fd5b5061014b6101463660046110ab565b61046e565b60405190151581526020015b60405180910390f35b34801561016c57600080fd5b5061012961017b3660046110f1565b6104a5565b34801561018c57600080fd5b506101b061019b36600461110c565b60009081526020819052604090206001015490565b604051908152602001610157565b3480156101ca57600080fd5b506101296101d9366004611125565b61050f565b3480156101ea57600080fd5b506101296101f9366004611125565b610539565b34801561020a57600080fd5b50610129610219366004611151565b6105bc565b34801561022a57600080fd5b506101b0610239366004611184565b61076c565b34801561024a57600080fd5b506101296102593660046111d6565b610916565b34801561026a57600080fd5b506101296102793660046110f1565b610ae9565b34801561028a57600080fd5b506101b061029936600461110c565b610b53565b3480156102aa57600080fd5b506101296102b936600461129a565b610c3e565b3480156102ca57600080fd5b5061014b6102d9366004611125565b610d28565b3480156102ea57600080fd5b506101b0600081565b3480156102ff57600080fd5b506101b061030e3660046112e3565b610d51565b34801561031f57600080fd5b506101b060b481565b34801561033457600080fd5b506101b060025481565b34801561034a57600080fd5b50610129610359366004611125565b610d82565b34801561036a57600080fd5b506101b066038d7ea4c6800081565b34801561038557600080fd5b506101b06000805160206114f483398151915281565b3480156103a757600080fd5b506103fc6103b636600461110c565b6001602081905260009182526040909120805491810154600282015460039092015490919060ff808216916101008104909116906201000090046001600160a01b031686565b6040805196875260208701959095529385019290925260ff90811660608501521660808301526001600160a01b031660a082015260c001610157565b34801561044457600080fd5b506101b06104533660046110f1565b6001600160a01b031660009081526003602052604090205490565b60006001600160e01b03198216637965db0b60e01b148061049f57506301ffc9a760e01b6001600160e01b03198316145b92915050565b6000805160206114f48339815191526104bd81610da7565b6104d56000805160206114f483398151915283610d82565b60405133906001600160a01b038416907fca273b61904dd225d0c1e905343c24040cecad0b4491337492c990845edb525790600090a35050565b60008281526020819052604090206001015461052a81610da7565b6105348383610db4565b505050565b6001600160a01b03811633146105ae5760405162461bcd60e51b815260206004820152602f60248201527f416363657373436f6e74726f6c3a2063616e206f6e6c792072656e6f756e636560448201526e103937b632b9903337b91039b2b63360891b60648201526084015b60405180910390fd5b6105b88282610e38565b5050565b6000805160206114f48339815191526105d481610da7565b6000838152600160205260408120805490910361060457604051631b017f1760e11b815260040160405180910390fd5b66038d7ea4c68000816002015411156106305760405163d4eff9fb60e01b815260040160405180910390fd5b6002810154156106bc57600381015460028201546040516000926201000090046001600160a01b031691908381818185875af1925050503d8060008114610693576040519150601f19603f3d011682016040523d82523d6000602084013e610698565b606091505b50509050806106ba57604051630dcf35db60e41b815260040160405180910390fd5b505b828155426001808301919091556002820184905560038201805482906106eb908290610100900460ff16611323565b825461010092830a60ff8181021990921692821602919091179092556003840154604080518881528285166020820152928204909316828401529151620100009092046001600160a01b0316925086917f17ee42885f0e22165eac00b186d2f6967173c5d903e21a7d80ceddf6645e2e8c916060908290030190a350505050565b60006000805160206114f483398151915261078681610da7565b60028054600091826107978361133c565b9190505590506040518060c001604052808681526020014281526020018681526020018560ff168152602001600160ff168152602001876001600160a01b03168152506001600083815260200190815260200160002060008201518160000155602082015181600101556040820151816002015560608201518160030160006101000a81548160ff021916908360ff16021790555060808201518160030160016101000a81548160ff021916908360ff16021790555060a08201518160030160026101000a8154816001600160a01b0302191690836001600160a01b0316021790555090505060036000876001600160a01b03166001600160a01b03168152602001908152602001600020819080600181540180825580915050600190039060005260206000200160009091909190915055856001600160a01b0316817f4d140f3ab7e8fb4ad26897fc618b16b04dc99070c528dc3f0a83a4ee095bb38c8760405161090591815260200190565b60405180910390a395945050505050565b814710156109375760405163a3fb8f9d60e01b815260040160405180910390fd5b6000838152600160205260408120805490910361096757604051631b017f1760e11b815260040160405180910390fd5b60038101546201000090046001600160a01b0316331461099a576040516360b39bc560e01b815260040160405180910390fd5b60006109a585610b53565b9050838110156109c85760405163347efb5160e01b815260040160405180910390fd5b60008260010154426109da9190611355565b90506000826109e98784611368565b6109f3919061137f565b9050808460010154610a0591906113a1565b846001018190555085846002016000828254610a219190611355565b9091555050604051600090339088908381818185875af1925050503d8060008114610a68576040519150601f19603f3d011682016040523d82523d6000602084013e610a6d565b606091505b5050905080610a8f57604051630dcf35db60e41b815260040160405180910390fd5b600385015460405133917f47c0670222fad9b95e64bb97dfc188690542d35c688bd1621c1d82b0420e0f0d91610ad7918b918b918e9160ff8083169261010090041690611404565b60405180910390a25050505050505050565b6000805160206114f4833981519152610b0181610da7565b610b196000805160206114f48339815191528361050f565b60405133906001600160a01b038416907f91a3131740191cd3eb4fc72bf2cbcd5ab483dcdf168f2307451becc3e5dae55690600090a35050565b6000818152600160208181526040808420815160c081018352815480825294820154938101939093526002810154918301919091526003015460ff808216606084015261010082041660808301526201000090046001600160a01b031660a0820152908203610bd557604051631b017f1760e11b815260040160405180910390fd5b8060400151600003610bea5750600092915050565b6000816020015142610bfc9190611355565b9050600060b4828460000151610c129190611368565b610c1c919061137f565b905082604001518111610c2f5780610c35565b82604001515b95945050505050565b6000805160206114f4833981519152610c5681610da7565b60008681526001602052604081208054909103610c8657604051631b017f1760e11b815260040160405180910390fd5b858155600181018590556002810184905560038101805461ff0019811661010060ff878116820292831794859055604080518c8152602081018c90529081018a90529381169281169290921760608401528304166080820152620100009091046001600160a01b03169088907f548e40d7e4654aa5af9a6984f2cea5a5b9bbd2104ecdfeea5858590c6672694c9060a00160405180910390a350505050505050565b6000918252602082815260408084206001600160a01b0393909316845291905290205460ff1690565b60036020528160005260406000208181548110610d6d57600080fd5b90600052602060002001600091509150505481565b600082815260208190526040902060010154610d9d81610da7565b6105348383610e38565b610db18133610e9d565b50565b610dbe8282610d28565b6105b8576000828152602081815260408083206001600160a01b03851684529091529020805460ff19166001179055610df43390565b6001600160a01b0316816001600160a01b0316837f2f8788117e7eff1d82e926ec794901d17c78024a50270940304540a733656f0d60405160405180910390a45050565b610e428282610d28565b156105b8576000828152602081815260408083206001600160a01b0385168085529252808320805460ff1916905551339285917ff6391f5c32d9c69d2a47ea670b442974b53935d1edc7fd64eb21e047a839171b9190a45050565b610ea78282610d28565b6105b857610eb481610ef6565b610ebf836020610f08565b604051602001610ed092919061143e565b60408051601f198184030181529082905262461bcd60e51b82526105a5916004016114b3565b606061049f6001600160a01b03831660145b60606000610f17836002611368565b610f229060026113a1565b67ffffffffffffffff811115610f3a57610f3a6111c0565b6040519080825280601f01601f191660200182016040528015610f64576020820181803683370190505b509050600360fc1b81600081518110610f7f57610f7f6114c6565b60200101906001600160f81b031916908160001a905350600f60fb1b81600181518110610fae57610fae6114c6565b60200101906001600160f81b031916908160001a9053506000610fd2846002611368565b610fdd9060016113a1565b90505b6001811115611055576f181899199a1a9b1b9c1cb0b131b232b360811b85600f1660108110611011576110116114c6565b1a60f81b828281518110611027576110276114c6565b60200101906001600160f81b031916908160001a90535060049490941c9361104e816114dc565b9050610fe0565b5083156110a45760405162461bcd60e51b815260206004820181905260248201527f537472696e67733a20686578206c656e67746820696e73756666696369656e7460448201526064016105a5565b9392505050565b6000602082840312156110bd57600080fd5b81356001600160e01b0319811681146110a457600080fd5b80356001600160a01b03811681146110ec57600080fd5b919050565b60006020828403121561110357600080fd5b6110a4826110d5565b60006020828403121561111e57600080fd5b5035919050565b6000806040838503121561113857600080fd5b82359150611148602084016110d5565b90509250929050565b6000806040838503121561116457600080fd5b50508035926020909101359150565b803560ff811681146110ec57600080fd5b60008060006060848603121561119957600080fd5b6111a2846110d5565b9250602084013591506111b760408501611173565b90509250925092565b634e487b7160e01b600052604160045260246000fd5b6000806000606084860312156111eb57600080fd5b8335925060208401359150604084013567ffffffffffffffff8082111561121157600080fd5b818601915086601f83011261122557600080fd5b813581811115611237576112376111c0565b604051601f8201601f19908116603f0116810190838211818310171561125f5761125f6111c0565b8160405282815289602084870101111561127857600080fd5b8260208601602083013760006020848301015280955050505050509250925092565b600080600080600060a086880312156112b257600080fd5b853594506020860135935060408601359250606086013591506112d760808701611173565b90509295509295909350565b600080604083850312156112f657600080fd5b6112ff836110d5565b946020939093013593505050565b634e487b7160e01b600052601160045260246000fd5b60ff818116838216019081111561049f5761049f61130d565b60006001820161134e5761134e61130d565b5060010190565b8181038181111561049f5761049f61130d565b808202811582820484141761049f5761049f61130d565b60008261139c57634e487b7160e01b600052601260045260246000fd5b500490565b8082018082111561049f5761049f61130d565b60005b838110156113cf5781810151838201526020016113b7565b50506000910152565b600081518084526113f08160208601602086016113b4565b601f01601f19169290920160200192915050565b85815260a06020820152600061141d60a08301876113d8565b60408301959095525060ff9283166060820152911660809091015292915050565b7f416363657373436f6e74726f6c3a206163636f756e74200000000000000000008152600083516114768160178501602088016113b4565b7001034b99036b4b9b9b4b733903937b6329607d1b60179184019182015283516114a78160288401602088016113b4565b01602801949350505050565b6020815260006110a460208301846113d8565b634e487b7160e01b600052603260045260246000fd5b6000816114eb576114eb61130d565b50600019019056feb19546dff01e856fb3f010c267a7b1c60363cf8a4664e21cc89c26224620214ea2646970667358221220ff6e1722a4db24900b0b16bf92418a2f66f8054b2e46c6f8d1b867836d7aa23b64736f6c63430008110033b19546dff01e856fb3f010c267a7b1c60363cf8a4664e21cc89c26224620214e",
  "devdoc": {
    "kind": "dev",
    "methods": {
      "getRoleAdmin(bytes32)": {
        "details": "Returns the admin role that controls `role`. See {grantRole} and {revokeRole}. To change a role's admin, use {_setRoleAdmin}."
      },
      "grantRole(bytes32,address)": {
        "details": "Grants `role` to `account`. If `account` had not been already granted `role`, emits a {RoleGranted} event. Requirements: - the caller must have ``role``'s admin role. May emit a {RoleGranted} event."
      },
      "hasRole(bytes32,address)": {
        "details": "Returns `true` if `account` has been granted `role`."
      },
      "renounceRole(bytes32,address)": {
        "details": "Revokes `role` from the calling account. Roles are often managed via {grantRole} and {revokeRole}: this function's purpose is to provide a mechanism for accounts to lose their privileges if they are compromised (such as when a trusted device is misplaced). If the calling account had been revoked `role`, emits a {RoleRevoked} event. Requirements: - the caller must be `account`. May emit a {RoleRevoked} event."
      },
      "revokeRole(bytes32,address)": {
        "details": "Revokes `role` from `account`. If `account` had been granted `role`, emits a {RoleRevoked} event. Requirements: - the caller must have ``role``'s admin role. May emit a {RoleRevoked} event."
      },
      "supportsInterface(bytes4)": {
        "details": "See {IERC165-supportsInterface}."
      }
    },
    "version": 1
  },
  "userdoc": {
    "kind": "user",
    "methods": {},
    "version": 1
  },
  "storageLayout": {
    "storage": [
      {
        "astId": 24,
        "contract": "contracts/Stream.sol:Stream",
        "label": "_roles",
        "offset": 0,
        "slot": "0",
        "type": "t_mapping(t_bytes32,t_struct(RoleData)19_storage)"
      },
      {
        "astId": 1514,
        "contract": "contracts/Stream.sol:Stream",
        "label": "grantStreams",
        "offset": 0,
        "slot": "1",
        "type": "t_mapping(t_uint256,t_struct(GrantStream)1509_storage)"
      },
      {
        "astId": 1517,
        "contract": "contracts/Stream.sol:Stream",
        "label": "nextGrantId",
        "offset": 0,
        "slot": "2",
        "type": "t_uint256"
      },
      {
        "astId": 1522,
        "contract": "contracts/Stream.sol:Stream",
        "label": "builderGrants",
        "offset": 0,
        "slot": "3",
        "type": "t_mapping(t_address,t_array(t_uint256)dyn_storage)"
      }
    ],
    "types": {
      "t_address": {
        "encoding": "inplace",
        "label": "address",
        "numberOfBytes": "20"
      },
      "t_array(t_uint256)dyn_storage": {
        "base": "t_uint256",
        "encoding": "dynamic_array",
        "label": "uint256[]",
        "numberOfBytes": "32"
      },
      "t_bool": {
        "encoding": "inplace",
        "label": "bool",
        "numberOfBytes": "1"
      },
      "t_bytes32": {
        "encoding": "inplace",
        "label": "bytes32",
        "numberOfBytes": "32"
      },
      "t_mapping(t_address,t_array(t_uint256)dyn_storage)": {
        "encoding": "mapping",
        "key": "t_address",
        "label": "mapping(address => uint256[])",
        "numberOfBytes": "32",
        "value": "t_array(t_uint256)dyn_storage"
      },
      "t_mapping(t_address,t_bool)": {
        "encoding": "mapping",
        "key": "t_address",
        "label": "mapping(address => bool)",
        "numberOfBytes": "32",
        "value": "t_bool"
      },
      "t_mapping(t_bytes32,t_struct(RoleData)19_storage)": {
        "encoding": "mapping",
        "key": "t_bytes32",
        "label": "mapping(bytes32 => struct AccessControl.RoleData)",
        "numberOfBytes": "32",
        "value": "t_struct(RoleData)19_storage"
      },
      "t_mapping(t_uint256,t_struct(GrantStream)1509_storage)": {
        "encoding": "mapping",
        "key": "t_uint256",
        "label": "mapping(uint256 => struct Stream.GrantStream)",
        "numberOfBytes": "32",
        "value": "t_struct(GrantStream)1509_storage"
      },
      "t_struct(GrantStream)1509_storage": {
        "encoding": "inplace",
        "label": "struct Stream.GrantStream",
        "members": [
          {
            "astId": 1498,
            "contract": "contracts/Stream.sol:Stream",
            "label": "cap",
            "offset": 0,
            "slot": "0",
            "type": "t_uint256"
          },
          {
            "astId": 1500,
            "contract": "contracts/Stream.sol:Stream",
            "label": "last",
            "offset": 0,
            "slot": "1",
            "type": "t_uint256"
          },
          {
            "astId": 1502,
            "contract": "contracts/Stream.sol:Stream",
            "label": "amountLeft",
            "offset": 0,
            "slot": "2",
            "type": "t_uint256"
          },
          {
            "astId": 1504,
            "contract": "contracts/Stream.sol:Stream",
            "label": "grantNumber",
            "offset": 0,
            "slot": "3",
            "type": "t_uint8"
          },
          {
            "astId": 1506,
            "contract": "contracts/Stream.sol:Stream",
            "label": "stageNumber",
            "offset": 1,
            "slot": "3",
            "type": "t_uint8"
          },
          {
            "astId": 1508,
            "contract": "contracts/Stream.sol:Stream",
            "label": "builder",
            "offset": 2,
            "slot": "3",
            "type": "t_address"
          }
        ],
        "numberOfBytes": "128"
      },
      "t_struct(RoleData)19_storage": {
        "encoding": "inplace",
        "label": "struct AccessControl.RoleData",
        "members": [
          {
            "astId": 16,
            "contract": "contracts/Stream.sol:Stream",
            "label": "members",
            "offset": 0,
            "slot": "0",
            "type": "t_mapping(t_address,t_bool)"
          },
          {
            "astId": 18,
            "contract": "contracts/Stream.sol:Stream",
            "label": "adminRole",
            "offset": 0,
            "slot": "1",
            "type": "t_bytes32"
          }
        ],
        "numberOfBytes": "64"
      },
      "t_uint256": {
        "encoding": "inplace",
        "label": "uint256",
        "numberOfBytes": "32"
      },
      "t_uint8": {
        "encoding": "inplace",
        "label": "uint8",
        "numberOfBytes": "1"
      }
    }
  }
}