{
  "address": "0x72704F28704fe9dF50516e0Fc29FbD9261a3DE64",
  "abi": [
    {
      "inputs": [
        {
          "internalType": "address[]",
          "name": "_initialOwners",
          "type": "address[]"
        }
      ],
      "stateMutability": "nonpayable",
      "type": "constructor"
    },
    {
      "inputs": [],
      "name": "AlreadyWithdrawnFromGrant",
      "type": "error"
    },
    {
      "inputs": [],
      "name": "FailedToSendEther",
      "type": "error"
    },
    {
      "inputs": [],
      "name": "InsufficientContractFunds",
      "type": "error"
    },
    {
      "inputs": [],
      "name": "InsufficientStreamFunds",
      "type": "error"
    },
    {
      "inputs": [],
      "name": "NoActiveStream",
      "type": "error"
    },
    {
      "inputs": [],
      "name": "PreviousAmountNotFullyWithdrawn",
      "type": "error"
    },
    {
      "inputs": [],
      "name": "UnauthorizedWithdrawal",
      "type": "error"
    },
    {
      "anonymous": false,
      "inputs": [
        {
          "indexed": true,
          "internalType": "uint256",
          "name": "grantId",
          "type": "uint256"
        },
        {
          "indexed": true,
          "internalType": "address",
          "name": "to",
          "type": "address"
        },
        {
          "indexed": false,
          "internalType": "uint256",
          "name": "amount",
          "type": "uint256"
        }
      ],
      "name": "AddGrant",
      "type": "event"
    },
    {
      "anonymous": false,
      "inputs": [
        {
          "indexed": true,
          "internalType": "address",
          "name": "newOwner",
          "type": "address"
        },
        {
          "indexed": true,
          "internalType": "address",
          "name": "addedBy",
          "type": "address"
        }
      ],
      "name": "AddOwner",
      "type": "event"
    },
    {
      "anonymous": false,
      "inputs": [
        {
          "indexed": true,
          "internalType": "uint256",
          "name": "grantId",
          "type": "uint256"
        },
        {
          "indexed": true,
          "internalType": "address",
          "name": "to",
          "type": "address"
        },
        {
          "indexed": false,
          "internalType": "uint256",
          "name": "amount",
          "type": "uint256"
        },
        {
          "indexed": false,
          "internalType": "uint8",
          "name": "grantNumber",
          "type": "uint8"
        },
        {
          "indexed": false,
          "internalType": "uint8",
          "name": "stageNumber",
          "type": "uint8"
        }
      ],
      "name": "MoveGrantToNextStage",
      "type": "event"
    },
    {
      "anonymous": false,
      "inputs": [
        {
          "indexed": true,
          "internalType": "uint256",
          "name": "grantId",
          "type": "uint256"
        },
        {
          "indexed": true,
          "internalType": "address",
          "name": "to",
          "type": "address"
        },
        {
          "indexed": false,
          "internalType": "uint256",
          "name": "amount",
          "type": "uint256"
        }
      ],
      "name": "ReinitializeGrant",
      "type": "event"
    },
    {
      "anonymous": false,
      "inputs": [
        {
          "indexed": true,
          "internalType": "uint256",
          "name": "grantId",
          "type": "uint256"
        },
        {
          "indexed": true,
          "internalType": "address",
          "name": "builder",
          "type": "address"
        },
        {
          "indexed": false,
          "internalType": "uint256",
          "name": "amount",
          "type": "uint256"
        },
        {
          "indexed": false,
          "internalType": "uint8",
          "name": "grantNumber",
          "type": "uint8"
        },
        {
          "indexed": false,
          "internalType": "uint8",
          "name": "stageNumber",
          "type": "uint8"
        }
      ],
      "name": "ReinitializeNextStage",
      "type": "event"
    },
    {
      "anonymous": false,
      "inputs": [
        {
          "indexed": true,
          "internalType": "address",
          "name": "removedOwner",
          "type": "address"
        },
        {
          "indexed": true,
          "internalType": "address",
          "name": "removedBy",
          "type": "address"
        }
      ],
      "name": "RemoveOwner",
      "type": "event"
    },
    {
      "anonymous": false,
      "inputs": [
        {
          "indexed": true,
          "internalType": "bytes32",
          "name": "role",
          "type": "bytes32"
        },
        {
          "indexed": true,
          "internalType": "bytes32",
          "name": "previousAdminRole",
          "type": "bytes32"
        },
        {
          "indexed": true,
          "internalType": "bytes32",
          "name": "newAdminRole",
          "type": "bytes32"
        }
      ],
      "name": "RoleAdminChanged",
      "type": "event"
    },
    {
      "anonymous": false,
      "inputs": [
        {
          "indexed": true,
          "internalType": "bytes32",
          "name": "role",
          "type": "bytes32"
        },
        {
          "indexed": true,
          "internalType": "address",
          "name": "account",
          "type": "address"
        },
        {
          "indexed": true,
          "internalType": "address",
          "name": "sender",
          "type": "address"
        }
      ],
      "name": "RoleGranted",
      "type": "event"
    },
    {
      "anonymous": false,
      "inputs": [
        {
          "indexed": true,
          "internalType": "bytes32",
          "name": "role",
          "type": "bytes32"
        },
        {
          "indexed": true,
          "internalType": "address",
          "name": "account",
          "type": "address"
        },
        {
          "indexed": true,
          "internalType": "address",
          "name": "sender",
          "type": "address"
        }
      ],
      "name": "RoleRevoked",
      "type": "event"
    },
    {
      "anonymous": false,
      "inputs": [
        {
          "indexed": true,
          "internalType": "uint256",
          "name": "grantId",
          "type": "uint256"
        },
        {
          "indexed": true,
          "internalType": "address",
          "name": "to",
          "type": "address"
        },
        {
          "indexed": false,
          "internalType": "uint256",
          "name": "cap",
          "type": "uint256"
        },
        {
          "indexed": false,
          "internalType": "uint256",
          "name": "last",
          "type": "uint256"
        },
        {
          "indexed": false,
          "internalType": "uint256",
          "name": "amountLeft",
          "type": "uint256"
        },
        {
          "indexed": false,
          "internalType": "uint8",
          "name": "grantNumber",
          "type": "uint8"
        },
        {
          "indexed": false,
          "internalType": "uint8",
          "name": "stageNumber",
          "type": "uint8"
        }
      ],
      "name": "UpdateGrant",
      "type": "event"
    },
    {
      "anonymous": false,
      "inputs": [
        {
          "indexed": true,
          "internalType": "address",
          "name": "to",
          "type": "address"
        },
        {
          "indexed": false,
          "internalType": "uint256",
          "name": "amount",
          "type": "uint256"
        },
        {
          "indexed": false,
          "internalType": "string",
          "name": "reason",
          "type": "string"
        },
        {
          "indexed": false,
          "internalType": "uint256",
          "name": "grantId",
          "type": "uint256"
        },
        {
          "indexed": false,
          "internalType": "uint8",
          "name": "grantNumber",
          "type": "uint8"
        },
        {
          "indexed": false,
          "internalType": "uint8",
          "name": "stageNumber",
          "type": "uint8"
        }
      ],
      "name": "Withdraw",
      "type": "event"
    },
    {
      "stateMutability": "payable",
      "type": "fallback"
    },
    {
      "inputs": [],
      "name": "DEFAULT_ADMIN_ROLE",
      "outputs": [
        {
          "internalType": "bytes32",
          "name": "",
          "type": "bytes32"
        }
      ],
      "stateMutability": "view",
      "type": "function"
    },
    {
      "inputs": [],
      "name": "DUST_THRESHOLD",
      "outputs": [
        {
          "internalType": "uint256",
          "name": "",
          "type": "uint256"
        }
      ],
      "stateMutability": "view",
      "type": "function"
    },
    {
      "inputs": [],
      "name": "FULL_STREAM_UNLOCK_PERIOD",
      "outputs": [
        {
          "internalType": "uint256",
          "name": "",
          "type": "uint256"
        }
      ],
      "stateMutability": "view",
      "type": "function"
    },
    {
      "inputs": [],
      "name": "OWNER_ROLE",
      "outputs": [
        {
          "internalType": "bytes32",
          "name": "",
          "type": "bytes32"
        }
      ],
      "stateMutability": "view",
      "type": "function"
    },
    {
      "inputs": [
        {
          "internalType": "address",
          "name": "_builder",
          "type": "address"
        },
        {
          "internalType": "uint256",
          "name": "_cap",
          "type": "uint256"
        },
        {
          "internalType": "uint8",
          "name": "_grantNumber",
          "type": "uint8"
        }
      ],
      "name": "addGrantStream",
      "outputs": [
        {
          "internalType": "uint256",
          "name": "",
          "type": "uint256"
        }
      ],
      "stateMutability": "nonpayable",
      "type": "function"
    },
    {
      "inputs": [
        {
          "internalType": "address",
          "name": "newOwner",
          "type": "address"
        }
      ],
      "name": "addOwner",
      "outputs": [],
      "stateMutability": "nonpayable",
      "type": "function"
    },
    {
      "inputs": [
        {
          "internalType": "address",
          "name": "",
          "type": "address"
        },
        {
          "internalType": "uint256",
          "name": "",
          "type": "uint256"
        }
      ],
      "name": "builderGrants",
      "outputs": [
        {
          "internalType": "uint256",
          "name": "grantId",
          "type": "uint256"
        },
        {
          "internalType": "uint8",
          "name": "grantNumber",
          "type": "uint8"
        }
      ],
      "stateMutability": "view",
      "type": "function"
    },
    {
      "inputs": [
        {
          "internalType": "address",
          "name": "_builder",
          "type": "address"
        }
      ],
      "name": "getBuilderGrantCount",
      "outputs": [
        {
          "internalType": "uint256",
          "name": "",
          "type": "uint256"
        }
      ],
      "stateMutability": "view",
      "type": "function"
    },
    {
      "inputs": [
        {
          "internalType": "address",
          "name": "_builder",
          "type": "address"
        },
        {
          "internalType": "uint8",
          "name": "_grantNumber",
          "type": "uint8"
        }
      ],
      "name": "getGrantIdByBuilderAndGrantNumber",
      "outputs": [
        {
          "internalType": "uint256",
          "name": "",
          "type": "uint256"
        }
      ],
      "stateMutability": "view",
      "type": "function"
    },
    {
      "inputs": [
        {
          "internalType": "bytes32",
          "name": "role",
          "type": "bytes32"
        }
      ],
      "name": "getRoleAdmin",
      "outputs": [
        {
          "internalType": "bytes32",
          "name": "",
          "type": "bytes32"
        }
      ],
      "stateMutability": "view",
      "type": "function"
    },
    {
      "inputs": [
        {
          "internalType": "bytes32",
          "name": "role",
          "type": "bytes32"
        },
        {
          "internalType": "address",
          "name": "account",
          "type": "address"
        }
      ],
      "name": "grantRole",
      "outputs": [],
      "stateMutability": "nonpayable",
      "type": "function"
    },
    {
      "inputs": [
        {
          "internalType": "uint256",
          "name": "",
          "type": "uint256"
        }
      ],
      "name": "grantStreams",
      "outputs": [
        {
          "internalType": "uint256",
          "name": "cap",
          "type": "uint256"
        },
        {
          "internalType": "uint256",
          "name": "last",
          "type": "uint256"
        },
        {
          "internalType": "uint256",
          "name": "amountLeft",
          "type": "uint256"
        },
        {
          "internalType": "uint8",
          "name": "grantNumber",
          "type": "uint8"
        },
        {
          "internalType": "uint8",
          "name": "stageNumber",
          "type": "uint8"
        },
        {
          "internalType": "address",
          "name": "builder",
          "type": "address"
        }
      ],
      "stateMutability": "view",
      "type": "function"
    },
    {
      "inputs": [
        {
          "internalType": "bytes32",
          "name": "role",
          "type": "bytes32"
        },
        {
          "internalType": "address",
          "name": "account",
          "type": "address"
        }
      ],
      "name": "hasRole",
      "outputs": [
        {
          "internalType": "bool",
          "name": "",
          "type": "bool"
        }
      ],
      "stateMutability": "view",
      "type": "function"
    },
    {
      "inputs": [
        {
          "internalType": "uint256",
          "name": "_grantId",
          "type": "uint256"
        },
        {
          "internalType": "uint256",
          "name": "_cap",
          "type": "uint256"
        }
      ],
      "name": "moveGrantToNextStage",
      "outputs": [],
      "stateMutability": "nonpayable",
      "type": "function"
    },
    {
      "inputs": [],
      "name": "nextGrantId",
      "outputs": [
        {
          "internalType": "uint256",
          "name": "",
          "type": "uint256"
        }
      ],
      "stateMutability": "view",
      "type": "function"
    },
    {
      "inputs": [
        {
          "internalType": "address",
          "name": "owner",
          "type": "address"
        }
      ],
      "name": "removeOwner",
      "outputs": [],
      "stateMutability": "nonpayable",
      "type": "function"
    },
    {
      "inputs": [
        {
          "internalType": "bytes32",
          "name": "role",
          "type": "bytes32"
        },
        {
          "internalType": "address",
          "name": "account",
          "type": "address"
        }
      ],
      "name": "renounceRole",
      "outputs": [],
      "stateMutability": "nonpayable",
      "type": "function"
    },
    {
      "inputs": [
        {
          "internalType": "bytes32",
          "name": "role",
          "type": "bytes32"
        },
        {
          "internalType": "address",
          "name": "account",
          "type": "address"
        }
      ],
      "name": "revokeRole",
      "outputs": [],
      "stateMutability": "nonpayable",
      "type": "function"
    },
    {
      "inputs": [
        {
          "internalType": "uint256",
          "name": "_grantId",
          "type": "uint256"
        },
        {
          "internalType": "uint256",
          "name": "_amount",
          "type": "uint256"
        },
        {
          "internalType": "string",
          "name": "_reason",
          "type": "string"
        }
      ],
      "name": "streamWithdraw",
      "outputs": [],
      "stateMutability": "nonpayable",
      "type": "function"
    },
    {
      "inputs": [
        {
          "internalType": "bytes4",
          "name": "interfaceId",
          "type": "bytes4"
        }
      ],
      "name": "supportsInterface",
      "outputs": [
        {
          "internalType": "bool",
          "name": "",
          "type": "bool"
        }
      ],
      "stateMutability": "view",
      "type": "function"
    },
    {
      "inputs": [
        {
          "internalType": "uint256",
          "name": "_grantId",
          "type": "uint256"
        }
      ],
      "name": "unlockedGrantAmount",
      "outputs": [
        {
          "internalType": "uint256",
          "name": "",
          "type": "uint256"
        }
      ],
      "stateMutability": "view",
      "type": "function"
    },
    {
      "inputs": [
        {
          "internalType": "uint256",
          "name": "_grantId",
          "type": "uint256"
        },
        {
          "internalType": "uint256",
          "name": "_cap",
          "type": "uint256"
        },
        {
          "internalType": "uint256",
          "name": "_last",
          "type": "uint256"
        },
        {
          "internalType": "uint256",
          "name": "_amountLeft",
          "type": "uint256"
        },
        {
          "internalType": "uint8",
          "name": "_stageNumber",
          "type": "uint8"
        }
      ],
      "name": "updateGrant",
      "outputs": [],
      "stateMutability": "nonpayable",
      "type": "function"
    },
    {
      "stateMutability": "payable",
      "type": "receive"
    }
  ],
  "transactionHash": "0x8cdec0edf64346e8a9aba936d87065df72e850e7e4c71f61d8c4c07fd26a2631",
  "args": [
    [
      "0x55b9CB0bCf56057010b9c471e7D42d60e1111EEa",
      "0x60583563D5879C2E59973E5718c7DE2147971807",
      "0xb8224dfCf3C174331a8e6a841AEEa7dF321f6D8E",
      "0xB4F53bd85c00EF22946d24Ae26BC38Ac64F5E7B1"
    ]
  ],
  "numDeployments": 1,
  "solcInputHash": "9678b3902dbd92493a7cc9d28ddcf484",
  "bytecode": "0x608060405260016002553480156200001657600080fd5b5060405162001c1d38038062001c1d8339810160408190526200003991620001da565b6200005460008051602062001bfd83398151915280620000bb565b60005b8151811015620000b3576200009e60008051602062001bfd8339815191528383815181106200008a576200008a620002ac565b60200260200101516200010660201b60201c565b80620000aa81620002c2565b91505062000057565b5050620002ea565b600082815260208190526040808220600101805490849055905190918391839186917fbd79b86ffe0ab8e8776151514217cd7cacd52c909f66475c3af44e129f0b00ff9190a4505050565b6000828152602081815260408083206001600160a01b038516845290915290205460ff16620001a3576000828152602081815260408083206001600160a01b03851684529091529020805460ff19166001179055620001623390565b6001600160a01b0316816001600160a01b0316837f2f8788117e7eff1d82e926ec794901d17c78024a50270940304540a733656f0d60405160405180910390a45b5050565b634e487b7160e01b600052604160045260246000fd5b80516001600160a01b0381168114620001d557600080fd5b919050565b60006020808385031215620001ee57600080fd5b82516001600160401b03808211156200020657600080fd5b818501915085601f8301126200021b57600080fd5b815181811115620002305762000230620001a7565b8060051b604051601f19603f83011681018181108582111715620002585762000258620001a7565b6040529182528482019250838101850191888311156200027757600080fd5b938501935b82851015620002a0576200029085620001bd565b845293850193928501926200027c565b98975050505050505050565b634e487b7160e01b600052603260045260246000fd5b600060018201620002e357634e487b7160e01b600052601160045260246000fd5b5060010190565b61190380620002fa6000396000f3fe60806040526004361061012d5760003560e01c806391d14854116100a5578063bb8b3ea91161006c578063bb8b3ea91461036c578063d547741f14610382578063dd7dc9a9146103a2578063e58378bb146103bd578063ed2c9d09146103df578063f1f693d11461047c57005b806391d14854146102c9578063a217fddf146102e9578063ae69f6db146102fe578063b493eca114610335578063baf57b801461034c57005b8063378c3286116100f4578063378c328614610209578063543d55d5146102295780636770c53f146102495780637065cb48146102695780637370c224146102895780638f9eb24d146102a957005b806301ffc9a714610136578063173825d91461016b578063248a9ca31461018b5780632f2ff15d146101c957806336568abe146101e957005b3661013457005b005b34801561014257600080fd5b5061015661015136600461143b565b6104b2565b60405190151581526020015b60405180910390f35b34801561017757600080fd5b50610134610186366004611481565b6104e9565b34801561019757600080fd5b506101bb6101a636600461149c565b60009081526020819052604090206001015490565b604051908152602001610162565b3480156101d557600080fd5b506101346101e43660046114b5565b610553565b3480156101f557600080fd5b506101346102043660046114b5565b61057d565b34801561021557600080fd5b506101346102243660046114e1565b610600565b34801561023557600080fd5b506101bb610244366004611514565b610835565b34801561025557600080fd5b50610134610264366004611566565b610bc6565b34801561027557600080fd5b50610134610284366004611481565b610d99565b34801561029557600080fd5b506101bb6102a436600461149c565b610e03565b3480156102b557600080fd5b506101346102c436600461162a565b610ef0565b3480156102d557600080fd5b506101566102e43660046114b5565b610fda565b3480156102f557600080fd5b506101bb600081565b34801561030a57600080fd5b5061031e610319366004611673565b611003565b6040805192835260ff909116602083015201610162565b34801561034157600080fd5b506101bb62278d0081565b34801561035857600080fd5b506101bb61036736600461169d565b611042565b34801561037857600080fd5b506101bb60025481565b34801561038e57600080fd5b5061013461039d3660046114b5565b611112565b3480156103ae57600080fd5b506101bb66038d7ea4c6800081565b3480156103c957600080fd5b506101bb6000805160206118ae83398151915281565b3480156103eb57600080fd5b506104406103fa36600461149c565b6001602081905260009182526040909120805491810154600282015460039092015490919060ff808216916101008104909116906201000090046001600160a01b031686565b6040805196875260208701959095529385019290925260ff90811660608501521660808301526001600160a01b031660a082015260c001610162565b34801561048857600080fd5b506101bb610497366004611481565b6001600160a01b031660009081526003602052604090205490565b60006001600160e01b03198216637965db0b60e01b14806104e357506301ffc9a760e01b6001600160e01b03198316145b92915050565b6000805160206118ae83398151915261050181611137565b6105196000805160206118ae83398151915283611112565b60405133906001600160a01b038416907fca273b61904dd225d0c1e905343c24040cecad0b4491337492c990845edb525790600090a35050565b60008281526020819052604090206001015461056e81611137565b6105788383611144565b505050565b6001600160a01b03811633146105f25760405162461bcd60e51b815260206004820152602f60248201527f416363657373436f6e74726f6c3a2063616e206f6e6c792072656e6f756e636560448201526e103937b632b9903337b91039b2b63360891b60648201526084015b60405180910390fd5b6105fc82826111c8565b5050565b6000805160206118ae83398151915261061881611137565b6000838152600160205260408120805490910361064857604051631b017f1760e11b815260040160405180910390fd5b80546002820154036106cc578281554260018201556002810183905560038101546040805185815260ff808416602083015261010084041691810191909152620100009091046001600160a01b03169085907f163d2dff0921e64458fa28a275a08ecb86f62058df960fcd1e199a61db8f8ddd9060600160405180910390a361082f565b66038d7ea4c68000816002015411156106f85760405163d4eff9fb60e01b815260040160405180910390fd5b60028101541561078457600381015460028201546040516000926201000090046001600160a01b031691908381818185875af1925050503d806000811461075b576040519150601f19603f3d011682016040523d82523d6000602084013e610760565b606091505b505090508061078257604051630dcf35db60e41b815260040160405180910390fd5b505b828155426001808301919091556002820184905560038201805482906107b3908290610100900460ff166116dd565b825461010092830a60ff8181021990921692821602919091179092556003840154604080518881528285166020820152928204909316828401529151620100009092046001600160a01b0316925086917f17ee42885f0e22165eac00b186d2f6967173c5d903e21a7d80ceddf6645e2e8c916060908290030190a35b50505050565b60006000805160206118ae83398151915261084f81611137565b6001600160a01b038516600090815260036020908152604080832080548251818502810185019093528083528493849084015b828210156108c457600084815260209081902060408051808201909152600285029091018054825260019081015460ff16828401529083529092019101610882565b50505050905060005b81518110156109cb576000600160008484815181106108ee576108ee6116f6565b602090810291909101810151518252818101929092526040908101600020815160c081018352815481526001820154938101939093526002810154918301919091526003015460ff80821660608401819052610100830482166080850152620100009092046001600160a01b031660a084015291925090881690036109b857604081015181511461099257604051630644429360e01b815260040160405180910390fd5b8282815181106109a4576109a46116f6565b6020026020010151600001519350506109cb565b50806109c38161170c565b9150506108cd565b506000826000036109ef57600280549060006109e68361170c565b919050556109f1565b825b90506040518060c001604052808881526020014281526020018881526020018760ff168152602001600160ff168152602001896001600160a01b03168152506001600083815260200190815260200160002060008201518160000155602082015181600101556040820151816002015560608201518160030160006101000a81548160ff021916908360ff16021790555060808201518160030160016101000a81548160ff021916908360ff16021790555060a08201518160030160026101000a8154816001600160a01b0302191690836001600160a01b0316021790555090505082600003610b76576001600160a01b03881660008181526003602090815260408083208151808301835286815260ff8c81168286019081528354600180820186559488529686902092516002909702909201958655905194909101805460ff19169490911693909317909255905189815283917f4d140f3ab7e8fb4ad26897fc618b16b04dc99070c528dc3f0a83a4ee095bb38c910160405180910390a3610bbb565b876001600160a01b0316817f10fb48f0711b494fdbf819e97c500458db3e7873b7d01e20cc3084293f25191e89604051610bb291815260200190565b60405180910390a35b979650505050505050565b81471015610be75760405163a3fb8f9d60e01b815260040160405180910390fd5b60008381526001602052604081208054909103610c1757604051631b017f1760e11b815260040160405180910390fd5b60038101546201000090046001600160a01b03163314610c4a576040516360b39bc560e01b815260040160405180910390fd5b6000610c5585610e03565b905083811015610c785760405163347efb5160e01b815260040160405180910390fd5b6000826001015442610c8a9190611725565b9050600082610c998784611738565b610ca3919061174f565b9050808460010154610cb59190611771565b846001018190555085846002016000828254610cd19190611725565b9091555050604051600090339088908381818185875af1925050503d8060008114610d18576040519150601f19603f3d011682016040523d82523d6000602084013e610d1d565b606091505b5050905080610d3f57604051630dcf35db60e41b815260040160405180910390fd5b600385015460405133917f47c0670222fad9b95e64bb97dfc188690542d35c688bd1621c1d82b0420e0f0d91610d87918b918b918e9160ff80831692610100900416906117d4565b60405180910390a25050505050505050565b6000805160206118ae833981519152610db181611137565b610dc96000805160206118ae83398151915283610553565b60405133906001600160a01b038416907f91a3131740191cd3eb4fc72bf2cbcd5ab483dcdf168f2307451becc3e5dae55690600090a35050565b6000818152600160208181526040808420815160c081018352815480825294820154938101939093526002810154918301919091526003015460ff808216606084015261010082041660808301526201000090046001600160a01b031660a0820152908203610e8557604051631b017f1760e11b815260040160405180910390fd5b8060400151600003610e9a5750600092915050565b6000816020015142610eac9190611725565b9050600062278d00828460000151610ec49190611738565b610ece919061174f565b905082604001518111610ee15780610ee7565b82604001515b95945050505050565b6000805160206118ae833981519152610f0881611137565b60008681526001602052604081208054909103610f3857604051631b017f1760e11b815260040160405180910390fd5b858155600181018590556002810184905560038101805461ff0019811661010060ff878116820292831794859055604080518c8152602081018c90529081018a90529381169281169290921760608401528304166080820152620100009091046001600160a01b03169088907f548e40d7e4654aa5af9a6984f2cea5a5b9bbd2104ecdfeea5858590c6672694c9060a00160405180910390a350505050505050565b6000918252602082815260408084206001600160a01b0393909316845291905290205460ff1690565b6003602052816000526040600020818154811061101f57600080fd5b60009182526020909120600290910201805460019091015490925060ff16905082565b6000805b6001600160a01b038416600090815260036020526040902054811015611108576001600160a01b0384166000908152600360205260409020805460ff8516919083908110611096576110966116f6565b600091825260209091206001600290920201015460ff16036110f6576001600160a01b03841660009081526003602052604090208054829081106110dc576110dc6116f6565b9060005260206000209060020201600001549150506104e3565b806111008161170c565b915050611046565b5060009392505050565b60008281526020819052604090206001015461112d81611137565b61057883836111c8565b611141813361122d565b50565b61114e8282610fda565b6105fc576000828152602081815260408083206001600160a01b03851684529091529020805460ff191660011790556111843390565b6001600160a01b0316816001600160a01b0316837f2f8788117e7eff1d82e926ec794901d17c78024a50270940304540a733656f0d60405160405180910390a45050565b6111d28282610fda565b156105fc576000828152602081815260408083206001600160a01b0385168085529252808320805460ff1916905551339285917ff6391f5c32d9c69d2a47ea670b442974b53935d1edc7fd64eb21e047a839171b9190a45050565b6112378282610fda565b6105fc5761124481611286565b61124f836020611298565b60405160200161126092919061180e565b60408051601f198184030181529082905262461bcd60e51b82526105e991600401611883565b60606104e36001600160a01b03831660145b606060006112a7836002611738565b6112b2906002611771565b67ffffffffffffffff8111156112ca576112ca611550565b6040519080825280601f01601f1916602001820160405280156112f4576020820181803683370190505b509050600360fc1b8160008151811061130f5761130f6116f6565b60200101906001600160f81b031916908160001a905350600f60fb1b8160018151811061133e5761133e6116f6565b60200101906001600160f81b031916908160001a9053506000611362846002611738565b61136d906001611771565b90505b60018111156113e5576f181899199a1a9b1b9c1cb0b131b232b360811b85600f16601081106113a1576113a16116f6565b1a60f81b8282815181106113b7576113b76116f6565b60200101906001600160f81b031916908160001a90535060049490941c936113de81611896565b9050611370565b5083156114345760405162461bcd60e51b815260206004820181905260248201527f537472696e67733a20686578206c656e67746820696e73756666696369656e7460448201526064016105e9565b9392505050565b60006020828403121561144d57600080fd5b81356001600160e01b03198116811461143457600080fd5b80356001600160a01b038116811461147c57600080fd5b919050565b60006020828403121561149357600080fd5b61143482611465565b6000602082840312156114ae57600080fd5b5035919050565b600080604083850312156114c857600080fd5b823591506114d860208401611465565b90509250929050565b600080604083850312156114f457600080fd5b50508035926020909101359150565b803560ff8116811461147c57600080fd5b60008060006060848603121561152957600080fd5b61153284611465565b92506020840135915061154760408501611503565b90509250925092565b634e487b7160e01b600052604160045260246000fd5b60008060006060848603121561157b57600080fd5b8335925060208401359150604084013567ffffffffffffffff808211156115a157600080fd5b818601915086601f8301126115b557600080fd5b8135818111156115c7576115c7611550565b604051601f8201601f19908116603f011681019083821181831017156115ef576115ef611550565b8160405282815289602084870101111561160857600080fd5b8260208601602083013760006020848301015280955050505050509250925092565b600080600080600060a0868803121561164257600080fd5b8535945060208601359350604086013592506060860135915061166760808701611503565b90509295509295909350565b6000806040838503121561168657600080fd5b61168f83611465565b946020939093013593505050565b600080604083850312156116b057600080fd5b6116b983611465565b91506114d860208401611503565b634e487b7160e01b600052601160045260246000fd5b60ff81811683821601908111156104e3576104e36116c7565b634e487b7160e01b600052603260045260246000fd5b60006001820161171e5761171e6116c7565b5060010190565b818103818111156104e3576104e36116c7565b80820281158282048414176104e3576104e36116c7565b60008261176c57634e487b7160e01b600052601260045260246000fd5b500490565b808201808211156104e3576104e36116c7565b60005b8381101561179f578181015183820152602001611787565b50506000910152565b600081518084526117c0816020860160208601611784565b601f01601f19169290920160200192915050565b85815260a0602082015260006117ed60a08301876117a8565b60408301959095525060ff9283166060820152911660809091015292915050565b7f416363657373436f6e74726f6c3a206163636f756e7420000000000000000000815260008351611846816017850160208801611784565b7001034b99036b4b9b9b4b733903937b6329607d1b6017918401918201528351611877816028840160208801611784565b01602801949350505050565b60208152600061143460208301846117a8565b6000816118a5576118a56116c7565b50600019019056feb19546dff01e856fb3f010c267a7b1c60363cf8a4664e21cc89c26224620214ea2646970667358221220696172ba62ce09f5bf965770b353446ba592ec037821a87e4bd0133c062fe38564736f6c63430008110033b19546dff01e856fb3f010c267a7b1c60363cf8a4664e21cc89c26224620214e",
  "devdoc": {
    "kind": "dev",
    "methods": {
      "getRoleAdmin(bytes32)": {
        "details": "Returns the admin role that controls `role`. See {grantRole} and {revokeRole}. To change a role's admin, use {_setRoleAdmin}."
      },
      "grantRole(bytes32,address)": {
        "details": "Grants `role` to `account`. If `account` had not been already granted `role`, emits a {RoleGranted} event. Requirements: - the caller must have ``role``'s admin role. May emit a {RoleGranted} event."
      },
      "hasRole(bytes32,address)": {
        "details": "Returns `true` if `account` has been granted `role`."
      },
      "renounceRole(bytes32,address)": {
        "details": "Revokes `role` from the calling account. Roles are often managed via {grantRole} and {revokeRole}: this function's purpose is to provide a mechanism for accounts to lose their privileges if they are compromised (such as when a trusted device is misplaced). If the calling account had been revoked `role`, emits a {RoleRevoked} event. Requirements: - the caller must be `account`. May emit a {RoleRevoked} event."
      },
      "revokeRole(bytes32,address)": {
        "details": "Revokes `role` from `account`. If `account` had been granted `role`, emits a {RoleRevoked} event. Requirements: - the caller must have ``role``'s admin role. May emit a {RoleRevoked} event."
      },
      "supportsInterface(bytes4)": {
        "details": "See {IERC165-supportsInterface}."
      }
    },
    "version": 1
  },
  "userdoc": {
    "kind": "user",
    "methods": {},
    "version": 1
  },
  "storageLayout": {
    "storage": [
      {
        "astId": 24,
        "contract": "contracts/Stream.sol:Stream",
        "label": "_roles",
        "offset": 0,
        "slot": "0",
        "type": "t_mapping(t_bytes32,t_struct(RoleData)19_storage)"
      },
      {
        "astId": 1519,
        "contract": "contracts/Stream.sol:Stream",
        "label": "grantStreams",
        "offset": 0,
        "slot": "1",
        "type": "t_mapping(t_uint256,t_struct(GrantStream)1509_storage)"
      },
      {
        "astId": 1522,
        "contract": "contracts/Stream.sol:Stream",
        "label": "nextGrantId",
        "offset": 0,
        "slot": "2",
        "type": "t_uint256"
      },
      {
        "astId": 1528,
        "contract": "contracts/Stream.sol:Stream",
        "label": "builderGrants",
        "offset": 0,
        "slot": "3",
        "type": "t_mapping(t_address,t_array(t_struct(BuilderGrantData)1514_storage)dyn_storage)"
      }
    ],
    "types": {
      "t_address": {
        "encoding": "inplace",
        "label": "address",
        "numberOfBytes": "20"
      },
      "t_array(t_struct(BuilderGrantData)1514_storage)dyn_storage": {
        "base": "t_struct(BuilderGrantData)1514_storage",
        "encoding": "dynamic_array",
        "label": "struct Stream.BuilderGrantData[]",
        "numberOfBytes": "32"
      },
      "t_bool": {
        "encoding": "inplace",
        "label": "bool",
        "numberOfBytes": "1"
      },
      "t_bytes32": {
        "encoding": "inplace",
        "label": "bytes32",
        "numberOfBytes": "32"
      },
      "t_mapping(t_address,t_array(t_struct(BuilderGrantData)1514_storage)dyn_storage)": {
        "encoding": "mapping",
        "key": "t_address",
        "label": "mapping(address => struct Stream.BuilderGrantData[])",
        "numberOfBytes": "32",
        "value": "t_array(t_struct(BuilderGrantData)1514_storage)dyn_storage"
      },
      "t_mapping(t_address,t_bool)": {
        "encoding": "mapping",
        "key": "t_address",
        "label": "mapping(address => bool)",
        "numberOfBytes": "32",
        "value": "t_bool"
      },
      "t_mapping(t_bytes32,t_struct(RoleData)19_storage)": {
        "encoding": "mapping",
        "key": "t_bytes32",
        "label": "mapping(bytes32 => struct AccessControl.RoleData)",
        "numberOfBytes": "32",
        "value": "t_struct(RoleData)19_storage"
      },
      "t_mapping(t_uint256,t_struct(GrantStream)1509_storage)": {
        "encoding": "mapping",
        "key": "t_uint256",
        "label": "mapping(uint256 => struct Stream.GrantStream)",
        "numberOfBytes": "32",
        "value": "t_struct(GrantStream)1509_storage"
      },
      "t_struct(BuilderGrantData)1514_storage": {
        "encoding": "inplace",
        "label": "struct Stream.BuilderGrantData",
        "members": [
          {
            "astId": 1511,
            "contract": "contracts/Stream.sol:Stream",
            "label": "grantId",
            "offset": 0,
            "slot": "0",
            "type": "t_uint256"
          },
          {
            "astId": 1513,
            "contract": "contracts/Stream.sol:Stream",
            "label": "grantNumber",
            "offset": 0,
            "slot": "1",
            "type": "t_uint8"
          }
        ],
        "numberOfBytes": "64"
      },
      "t_struct(GrantStream)1509_storage": {
        "encoding": "inplace",
        "label": "struct Stream.GrantStream",
        "members": [
          {
            "astId": 1498,
            "contract": "contracts/Stream.sol:Stream",
            "label": "cap",
            "offset": 0,
            "slot": "0",
            "type": "t_uint256"
          },
          {
            "astId": 1500,
            "contract": "contracts/Stream.sol:Stream",
            "label": "last",
            "offset": 0,
            "slot": "1",
            "type": "t_uint256"
          },
          {
            "astId": 1502,
            "contract": "contracts/Stream.sol:Stream",
            "label": "amountLeft",
            "offset": 0,
            "slot": "2",
            "type": "t_uint256"
          },
          {
            "astId": 1504,
            "contract": "contracts/Stream.sol:Stream",
            "label": "grantNumber",
            "offset": 0,
            "slot": "3",
            "type": "t_uint8"
          },
          {
            "astId": 1506,
            "contract": "contracts/Stream.sol:Stream",
            "label": "stageNumber",
            "offset": 1,
            "slot": "3",
            "type": "t_uint8"
          },
          {
            "astId": 1508,
            "contract": "contracts/Stream.sol:Stream",
            "label": "builder",
            "offset": 2,
            "slot": "3",
            "type": "t_address"
          }
        ],
        "numberOfBytes": "128"
      },
      "t_struct(RoleData)19_storage": {
        "encoding": "inplace",
        "label": "struct AccessControl.RoleData",
        "members": [
          {
            "astId": 16,
            "contract": "contracts/Stream.sol:Stream",
            "label": "members",
            "offset": 0,
            "slot": "0",
            "type": "t_mapping(t_address,t_bool)"
          },
          {
            "astId": 18,
            "contract": "contracts/Stream.sol:Stream",
            "label": "adminRole",
            "offset": 0,
            "slot": "1",
            "type": "t_bytes32"
          }
        ],
        "numberOfBytes": "64"
      },
      "t_uint256": {
        "encoding": "inplace",
        "label": "uint256",
        "numberOfBytes": "32"
      },
      "t_uint8": {
        "encoding": "inplace",
        "label": "uint8",
        "numberOfBytes": "1"
      }
    }
  }
}